{
  "contractName": "Allowance",
  "abi": [
    {
      "anonymous": false,
      "inputs": [
        {
          "indexed": true,
          "internalType": "address",
          "name": "_of",
          "type": "address"
        },
        {
          "indexed": true,
          "internalType": "address",
          "name": "_by",
          "type": "address"
        },
        {
          "indexed": false,
          "internalType": "uint256",
          "name": "_prevAmount",
          "type": "uint256"
        },
        {
          "indexed": false,
          "internalType": "uint256",
          "name": "_newAmount",
          "type": "uint256"
        }
      ],
      "name": "AllowanceEvent",
      "type": "event"
    },
    {
      "anonymous": false,
      "inputs": [
        {
          "indexed": true,
          "internalType": "address",
          "name": "previousOwner",
          "type": "address"
        },
        {
          "indexed": true,
          "internalType": "address",
          "name": "newOwner",
          "type": "address"
        }
      ],
      "name": "OwnershipTransferred",
      "type": "event"
    },
    {
      "inputs": [],
      "name": "owner",
      "outputs": [
        {
          "internalType": "address",
          "name": "",
          "type": "address"
        }
      ],
      "stateMutability": "view",
      "type": "function"
    },
    {
      "inputs": [],
      "name": "renounceOwnership",
      "outputs": [],
      "stateMutability": "nonpayable",
      "type": "function"
    },
    {
      "inputs": [
        {
          "internalType": "address",
          "name": "newOwner",
          "type": "address"
        }
      ],
      "name": "transferOwnership",
      "outputs": [],
      "stateMutability": "nonpayable",
      "type": "function"
    },
    {
      "inputs": [
        {
          "internalType": "address",
          "name": "_address",
          "type": "address"
        },
        {
          "internalType": "uint256",
          "name": "_amount",
          "type": "uint256"
        }
      ],
      "name": "setAllowance",
      "outputs": [],
      "stateMutability": "nonpayable",
      "type": "function"
    },
    {
      "inputs": [
        {
          "internalType": "address",
          "name": "_address",
          "type": "address"
        },
        {
          "internalType": "uint256",
          "name": "_amount",
          "type": "uint256"
        }
      ],
      "name": "reduceAllowance",
      "outputs": [],
      "stateMutability": "nonpayable",
      "type": "function"
    }
  ],
  "bytecode": "0x608060405234801561001057600080fd5b5060006100216100c460201b60201c565b9050806000806101000a81548173ffffffffffffffffffffffffffffffffffffffff021916908373ffffffffffffffffffffffffffffffffffffffff1602179055508073ffffffffffffffffffffffffffffffffffffffff16600073ffffffffffffffffffffffffffffffffffffffff167f8be0079c531659141344cd1fd0a4f28419497f9722a3daafe3b4186f6b6457e060405160405180910390a3506100cc565b600033905090565b610b05806100db6000396000f3fe608060405234801561001057600080fd5b50600436106100575760003560e01c8063310ec4a71461005c578063715018a6146100785780638da5cb5b146100825780638fdf08df146100a0578063f2fde38b146100bc575b600080fd5b610076600480360381019061007191906107c3565b6100d8565b005b610080610242565b005b61008a61037c565b6040516100979190610886565b60405180910390f35b6100ba60048036038101906100b591906107c3565b6103a5565b005b6100d660048036038101906100d1919061079a565b610582565b005b6100e061072b565b73ffffffffffffffffffffffffffffffffffffffff166100fe61037c565b73ffffffffffffffffffffffffffffffffffffffff1614610154576040517f08c379a000000000000000000000000000000000000000000000000000000000815260040161014b906108e1565b60405180910390fd5b3373ffffffffffffffffffffffffffffffffffffffff168273ffffffffffffffffffffffffffffffffffffffff167fe6898917956e15b0dcdc6b00db83ed34efcaa6476d8b514014ba8928fddeefe4600160008673ffffffffffffffffffffffffffffffffffffffff1673ffffffffffffffffffffffffffffffffffffffff16815260200190815260200160002054846040516101f2929190610901565b60405180910390a380600160008473ffffffffffffffffffffffffffffffffffffffff1673ffffffffffffffffffffffffffffffffffffffff168152602001908152602001600020819055505050565b61024a61072b565b73ffffffffffffffffffffffffffffffffffffffff1661026861037c565b73ffffffffffffffffffffffffffffffffffffffff16146102be576040517f08c379a00000000000000000000000000000000000000000000000000000000081526004016102b5906108e1565b60405180910390fd5b600073ffffffffffffffffffffffffffffffffffffffff1660008054906101000a900473ffffffffffffffffffffffffffffffffffffffff1673ffffffffffffffffffffffffffffffffffffffff167f8be0079c531659141344cd1fd0a4f28419497f9722a3daafe3b4186f6b6457e060405160405180910390a360008060006101000a81548173ffffffffffffffffffffffffffffffffffffffff021916908373ffffffffffffffffffffffffffffffffffffffff160217905550565b60008060009054906101000a900473ffffffffffffffffffffffffffffffffffffffff16905090565b8080600160003373ffffffffffffffffffffffffffffffffffffffff1673ffffffffffffffffffffffffffffffffffffffff168152602001908152602001600020541015806103f857506103f7610733565b5b610437576040517f08c379a000000000000000000000000000000000000000000000000000000000815260040161042e906108a1565b60405180910390fd5b3373ffffffffffffffffffffffffffffffffffffffff168373ffffffffffffffffffffffffffffffffffffffff167fe6898917956e15b0dcdc6b00db83ed34efcaa6476d8b514014ba8928fddeefe4600160008773ffffffffffffffffffffffffffffffffffffffff1673ffffffffffffffffffffffffffffffffffffffff1681526020019081526020016000205485600160008973ffffffffffffffffffffffffffffffffffffffff1673ffffffffffffffffffffffffffffffffffffffff16815260200190815260200160002054610511919061093b565b60405161051f929190610901565b60405180910390a381600160008573ffffffffffffffffffffffffffffffffffffffff1673ffffffffffffffffffffffffffffffffffffffff1681526020019081526020016000206000828254610576919061093b565b92505081905550505050565b61058a61072b565b73ffffffffffffffffffffffffffffffffffffffff166105a861037c565b73ffffffffffffffffffffffffffffffffffffffff16146105fe576040517f08c379a00000000000000000000000000000000000000000000000000000000081526004016105f5906108e1565b60405180910390fd5b600073ffffffffffffffffffffffffffffffffffffffff168173ffffffffffffffffffffffffffffffffffffffff16141561066e576040517f08c379a0000000000000000000000000000000000000000000000000000000008152600401610665906108c1565b60405180910390fd5b8073ffffffffffffffffffffffffffffffffffffffff1660008054906101000a900473ffffffffffffffffffffffffffffffffffffffff1673ffffffffffffffffffffffffffffffffffffffff167f8be0079c531659141344cd1fd0a4f28419497f9722a3daafe3b4186f6b6457e060405160405180910390a3806000806101000a81548173ffffffffffffffffffffffffffffffffffffffff021916908373ffffffffffffffffffffffffffffffffffffffff16021790555050565b600033905090565b60003373ffffffffffffffffffffffffffffffffffffffff1661075461037c565b73ffffffffffffffffffffffffffffffffffffffff1614905090565b60008135905061077f81610aa1565b92915050565b60008135905061079481610ab8565b92915050565b6000602082840312156107ac57600080fd5b60006107ba84828501610770565b91505092915050565b600080604083850312156107d657600080fd5b60006107e485828601610770565b92505060206107f585828601610785565b9150509250929050565b6108088161096f565b82525050565b600061081b60278361092a565b9150610826826109da565b604082019050919050565b600061083e60268361092a565b915061084982610a29565b604082019050919050565b600061086160208361092a565b915061086c82610a78565b602082019050919050565b610880816109a1565b82525050565b600060208201905061089b60008301846107ff565b92915050565b600060208201905081810360008301526108ba8161080e565b9050919050565b600060208201905081810360008301526108da81610831565b9050919050565b600060208201905081810360008301526108fa81610854565b9050919050565b60006040820190506109166000830185610877565b6109236020830184610877565b9392505050565b600082825260208201905092915050565b6000610946826109a1565b9150610951836109a1565b925082821015610964576109636109ab565b5b828203905092915050565b600061097a82610981565b9050919050565b600073ffffffffffffffffffffffffffffffffffffffff82169050919050565b6000819050919050565b7f4e487b7100000000000000000000000000000000000000000000000000000000600052601160045260246000fd5b7f4164647265737320646f6573206e6f7420686176652073756666696369656e7460008201527f2066756e64732e00000000000000000000000000000000000000000000000000602082015250565b7f4f776e61626c653a206e6577206f776e657220697320746865207a65726f206160008201527f6464726573730000000000000000000000000000000000000000000000000000602082015250565b7f4f776e61626c653a2063616c6c6572206973206e6f7420746865206f776e6572600082015250565b610aaa8161096f565b8114610ab557600080fd5b50565b610ac1816109a1565b8114610acc57600080fd5b5056fea2646970667358221220dac98a2bb0066e437208471b68de61f5ec3b283b91713cac16c42b90914f01e464736f6c63430008040033",
  "immutableReferences": {},
  "source": "pragma solidity 0.8.4;\n\nimport \"@openzeppelin/contracts/access/Ownable.sol\";\n\ncontract Allowance is Ownable {\n    event AllowanceEvent(address indexed _of, address indexed _by, uint _prevAmount, uint _newAmount);\n    mapping(address => uint256) allowance;\n\n    function isOwner() internal view returns (bool) {\n        return owner() == msg.sender;\n    }\n\n    modifier isAllowed(uint256 _amount) {\n        require(\n            allowance[msg.sender] >= _amount || isOwner(),\n            \"Address does not have sufficient funds.\"\n        );\n        _;\n    }\n\n    function setAllowance(address _address, uint _amount) public onlyOwner {\n        emit AllowanceEvent(_address, msg.sender, allowance[_address], _amount);\n        allowance[_address] = _amount;\n    }\n\n    function reduceAllowance(address _address, uint _amount) public isAllowed(_amount) {\n        emit AllowanceEvent(_address, msg.sender, allowance[_address], allowance[_address] - _amount);\n\n        allowance[_address] -= _amount;\n    }\n}\n",
  "sourcePath": "/Users/mertozgun/dev/m2ozgun/JWallet/contracts/Allowance.sol",
  "compiler": {
    "name": "solc",
    "version": "0.8.4+commit.c7e474f2.Emscripten.clang"
  },
  "schemaVersion": "3.4.0",
  "updatedAt": "2021-05-02T07:14:36.550Z",
  "devdoc": {
    "kind": "dev",
    "methods": {
      "owner()": {
        "details": "Returns the address of the current owner."
      },
      "renounceOwnership()": {
        "details": "Leaves the contract without owner. It will not be possible to call `onlyOwner` functions anymore. Can only be called by the current owner. NOTE: Renouncing ownership will leave the contract without an owner, thereby removing any functionality that is only available to the owner."
      },
      "transferOwnership(address)": {
        "details": "Transfers ownership of the contract to a new account (`newOwner`). Can only be called by the current owner."
      }
    },
    "version": 1
  },
  "userdoc": {
    "kind": "user",
    "methods": {},
    "version": 1
  }
}