{
  "contractName": "Allowance",
  "abi": [
    {
      "anonymous": false,
      "inputs": [
        {
          "indexed": true,
          "internalType": "address",
          "name": "_of",
          "type": "address"
        },
        {
          "indexed": true,
          "internalType": "address",
          "name": "_by",
          "type": "address"
        },
        {
          "indexed": false,
          "internalType": "uint256",
          "name": "_prevAmount",
          "type": "uint256"
        },
        {
          "indexed": false,
          "internalType": "uint256",
          "name": "_newAmount",
          "type": "uint256"
        }
      ],
      "name": "AllowanceEvent",
      "type": "event"
    },
    {
      "anonymous": false,
      "inputs": [
        {
          "indexed": true,
          "internalType": "address",
          "name": "previousOwner",
          "type": "address"
        },
        {
          "indexed": true,
          "internalType": "address",
          "name": "newOwner",
          "type": "address"
        }
      ],
      "name": "OwnershipTransferred",
      "type": "event"
    },
    {
      "inputs": [
        {
          "internalType": "address",
          "name": "",
          "type": "address"
        }
      ],
      "name": "allowance",
      "outputs": [
        {
          "internalType": "uint256",
          "name": "",
          "type": "uint256"
        }
      ],
      "stateMutability": "view",
      "type": "function"
    },
    {
      "inputs": [],
      "name": "owner",
      "outputs": [
        {
          "internalType": "address",
          "name": "",
          "type": "address"
        }
      ],
      "stateMutability": "view",
      "type": "function"
    },
    {
      "inputs": [],
      "name": "renounceOwnership",
      "outputs": [],
      "stateMutability": "nonpayable",
      "type": "function"
    },
    {
      "inputs": [
        {
          "internalType": "address",
          "name": "newOwner",
          "type": "address"
        }
      ],
      "name": "transferOwnership",
      "outputs": [],
      "stateMutability": "nonpayable",
      "type": "function"
    },
    {
      "inputs": [
        {
          "internalType": "address",
          "name": "_address",
          "type": "address"
        },
        {
          "internalType": "uint256",
          "name": "_amount",
          "type": "uint256"
        }
      ],
      "name": "setAllowance",
      "outputs": [],
      "stateMutability": "nonpayable",
      "type": "function"
    },
    {
      "inputs": [
        {
          "internalType": "address",
          "name": "_address",
          "type": "address"
        },
        {
          "internalType": "uint256",
          "name": "_amount",
          "type": "uint256"
        }
      ],
      "name": "reduceAllowance",
      "outputs": [],
      "stateMutability": "nonpayable",
      "type": "function"
    }
  ],
  "bytecode": "0x608060405234801561001057600080fd5b5060006100216100c460201b60201c565b9050806000806101000a81548173ffffffffffffffffffffffffffffffffffffffff021916908373ffffffffffffffffffffffffffffffffffffffff1602179055508073ffffffffffffffffffffffffffffffffffffffff16600073ffffffffffffffffffffffffffffffffffffffff167f8be0079c531659141344cd1fd0a4f28419497f9722a3daafe3b4186f6b6457e060405160405180910390a3506100cc565b600033905090565b610b73806100db6000396000f3fe608060405234801561001057600080fd5b50600436106100625760003560e01c8063310ec4a7146100675780633e5beab914610083578063715018a6146100b35780638da5cb5b146100bd5780638fdf08df146100db578063f2fde38b146100f7575b600080fd5b610081600480360381019061007c9190610816565b610113565b005b61009d600480360381019061009891906107ed565b61027d565b6040516100aa9190610954565b60405180910390f35b6100bb610295565b005b6100c56103cf565b6040516100d291906108d9565b60405180910390f35b6100f560048036038101906100f09190610816565b6103f8565b005b610111600480360381019061010c91906107ed565b6105d5565b005b61011b61077e565b73ffffffffffffffffffffffffffffffffffffffff166101396103cf565b73ffffffffffffffffffffffffffffffffffffffff161461018f576040517f08c379a000000000000000000000000000000000000000000000000000000000815260040161018690610934565b60405180910390fd5b3373ffffffffffffffffffffffffffffffffffffffff168273ffffffffffffffffffffffffffffffffffffffff167fe6898917956e15b0dcdc6b00db83ed34efcaa6476d8b514014ba8928fddeefe4600160008673ffffffffffffffffffffffffffffffffffffffff1673ffffffffffffffffffffffffffffffffffffffff168152602001908152602001600020548460405161022d92919061096f565b60405180910390a380600160008473ffffffffffffffffffffffffffffffffffffffff1673ffffffffffffffffffffffffffffffffffffffff168152602001908152602001600020819055505050565b60016020528060005260406000206000915090505481565b61029d61077e565b73ffffffffffffffffffffffffffffffffffffffff166102bb6103cf565b73ffffffffffffffffffffffffffffffffffffffff1614610311576040517f08c379a000000000000000000000000000000000000000000000000000000000815260040161030890610934565b60405180910390fd5b600073ffffffffffffffffffffffffffffffffffffffff1660008054906101000a900473ffffffffffffffffffffffffffffffffffffffff1673ffffffffffffffffffffffffffffffffffffffff167f8be0079c531659141344cd1fd0a4f28419497f9722a3daafe3b4186f6b6457e060405160405180910390a360008060006101000a81548173ffffffffffffffffffffffffffffffffffffffff021916908373ffffffffffffffffffffffffffffffffffffffff160217905550565b60008060009054906101000a900473ffffffffffffffffffffffffffffffffffffffff16905090565b8080600160003373ffffffffffffffffffffffffffffffffffffffff1673ffffffffffffffffffffffffffffffffffffffff1681526020019081526020016000205410158061044b575061044a610786565b5b61048a576040517f08c379a0000000000000000000000000000000000000000000000000000000008152600401610481906108f4565b60405180910390fd5b3373ffffffffffffffffffffffffffffffffffffffff168373ffffffffffffffffffffffffffffffffffffffff167fe6898917956e15b0dcdc6b00db83ed34efcaa6476d8b514014ba8928fddeefe4600160008773ffffffffffffffffffffffffffffffffffffffff1673ffffffffffffffffffffffffffffffffffffffff1681526020019081526020016000205485600160008973ffffffffffffffffffffffffffffffffffffffff1673ffffffffffffffffffffffffffffffffffffffff1681526020019081526020016000205461056491906109a9565b60405161057292919061096f565b60405180910390a381600160008573ffffffffffffffffffffffffffffffffffffffff1673ffffffffffffffffffffffffffffffffffffffff16815260200190815260200160002060008282546105c991906109a9565b92505081905550505050565b6105dd61077e565b73ffffffffffffffffffffffffffffffffffffffff166105fb6103cf565b73ffffffffffffffffffffffffffffffffffffffff1614610651576040517f08c379a000000000000000000000000000000000000000000000000000000000815260040161064890610934565b60405180910390fd5b600073ffffffffffffffffffffffffffffffffffffffff168173ffffffffffffffffffffffffffffffffffffffff1614156106c1576040517f08c379a00000000000000000000000000000000000000000000000000000000081526004016106b890610914565b60405180910390fd5b8073ffffffffffffffffffffffffffffffffffffffff1660008054906101000a900473ffffffffffffffffffffffffffffffffffffffff1673ffffffffffffffffffffffffffffffffffffffff167f8be0079c531659141344cd1fd0a4f28419497f9722a3daafe3b4186f6b6457e060405160405180910390a3806000806101000a81548173ffffffffffffffffffffffffffffffffffffffff021916908373ffffffffffffffffffffffffffffffffffffffff16021790555050565b600033905090565b60003373ffffffffffffffffffffffffffffffffffffffff166107a76103cf565b73ffffffffffffffffffffffffffffffffffffffff1614905090565b6000813590506107d281610b0f565b92915050565b6000813590506107e781610b26565b92915050565b6000602082840312156107ff57600080fd5b600061080d848285016107c3565b91505092915050565b6000806040838503121561082957600080fd5b6000610837858286016107c3565b9250506020610848858286016107d8565b9150509250929050565b61085b816109dd565b82525050565b600061086e602783610998565b915061087982610a48565b604082019050919050565b6000610891602683610998565b915061089c82610a97565b604082019050919050565b60006108b4602083610998565b91506108bf82610ae6565b602082019050919050565b6108d381610a0f565b82525050565b60006020820190506108ee6000830184610852565b92915050565b6000602082019050818103600083015261090d81610861565b9050919050565b6000602082019050818103600083015261092d81610884565b9050919050565b6000602082019050818103600083015261094d816108a7565b9050919050565b600060208201905061096960008301846108ca565b92915050565b600060408201905061098460008301856108ca565b61099160208301846108ca565b9392505050565b600082825260208201905092915050565b60006109b482610a0f565b91506109bf83610a0f565b9250828210156109d2576109d1610a19565b5b828203905092915050565b60006109e8826109ef565b9050919050565b600073ffffffffffffffffffffffffffffffffffffffff82169050919050565b6000819050919050565b7f4e487b7100000000000000000000000000000000000000000000000000000000600052601160045260246000fd5b7f4164647265737320646f6573206e6f7420686176652073756666696369656e7460008201527f2066756e64732e00000000000000000000000000000000000000000000000000602082015250565b7f4f776e61626c653a206e6577206f776e657220697320746865207a65726f206160008201527f6464726573730000000000000000000000000000000000000000000000000000602082015250565b7f4f776e61626c653a2063616c6c6572206973206e6f7420746865206f776e6572600082015250565b610b18816109dd565b8114610b2357600080fd5b50565b610b2f81610a0f565b8114610b3a57600080fd5b5056fea26469706673582212203ca8b8a2a4135e7ce2443a215dee564c5d93eff6c5debbfb98b7148388286bfb64736f6c63430008040033",
  "immutableReferences": {},
  "source": "pragma solidity 0.8.4;\n\nimport \"@openzeppelin/contracts/access/Ownable.sol\";\n\ncontract Allowance is Ownable {\n    event AllowanceEvent(address indexed _of, address indexed _by, uint _prevAmount, uint _newAmount);\n    mapping(address => uint256) public allowance;\n\n    function isOwner() internal view returns (bool) {\n        return owner() == msg.sender;\n    }\n\n    modifier isAllowed(uint256 _amount) {\n        require(\n            allowance[msg.sender] >= _amount || isOwner(),\n            \"Address does not have sufficient funds.\"\n        );\n        _;\n    }\n\n    function setAllowance(address _address, uint _amount) public onlyOwner {\n        emit AllowanceEvent(_address, msg.sender, allowance[_address], _amount);\n        allowance[_address] = _amount;\n    }\n\n    function reduceAllowance(address _address, uint _amount) public isAllowed(_amount) {\n        emit AllowanceEvent(_address, msg.sender, allowance[_address], allowance[_address] - _amount);\n\n        allowance[_address] -= _amount;\n    }\n}\n",
  "sourcePath": "/Users/mertozgun/dev/m2ozgun/JWallet/contracts/Allowance.sol",
  "compiler": {
    "name": "solc",
    "version": "0.8.4+commit.c7e474f2.Emscripten.clang"
  },
  "schemaVersion": "3.4.0",
  "updatedAt": "2021-05-02T09:38:36.644Z",
  "devdoc": {
    "kind": "dev",
    "methods": {
      "owner()": {
        "details": "Returns the address of the current owner."
      },
      "renounceOwnership()": {
        "details": "Leaves the contract without owner. It will not be possible to call `onlyOwner` functions anymore. Can only be called by the current owner. NOTE: Renouncing ownership will leave the contract without an owner, thereby removing any functionality that is only available to the owner."
      },
      "transferOwnership(address)": {
        "details": "Transfers ownership of the contract to a new account (`newOwner`). Can only be called by the current owner."
      }
    },
    "version": 1
  },
  "userdoc": {
    "kind": "user",
    "methods": {},
    "version": 1
  }
}