{
  "contractName": "JWallet",
  "abi": [
    {
      "stateMutability": "payable",
      "type": "receive",
      "payable": true
    },
    {
      "inputs": [
        {
          "internalType": "address payable",
          "name": "_to",
          "type": "address"
        },
        {
          "internalType": "uint256",
          "name": "_amount",
          "type": "uint256"
        }
      ],
      "name": "withdraw",
      "outputs": [],
      "stateMutability": "nonpayable",
      "type": "function"
    }
  ],
  "bytecode": "0x608060405234801561001057600080fd5b50610267806100206000396000f3fe6080604052600436106100225760003560e01c8063f3fef3a31461002e57610029565b3661002957005b600080fd5b34801561003a57600080fd5b506100556004803603810190610050919061010e565b610057565b005b478111610099576040517f08c379a00000000000000000000000000000000000000000000000000000000081526004016100909061016d565b60405180910390fd5b8173ffffffffffffffffffffffffffffffffffffffff166108fc829081150290604051600060405180830381858888f193505050501580156100df573d6000803e3d6000fd5b505050565b6000813590506100f381610203565b92915050565b6000813590506101088161021a565b92915050565b6000806040838503121561012157600080fd5b600061012f858286016100e4565b9250506020610140858286016100f9565b9150509250929050565b600061015760208361018d565b9150610162826101da565b602082019050919050565b600060208201905081810360008301526101868161014a565b9050919050565b600082825260208201905092915050565b60006101a9826101b0565b9050919050565b600073ffffffffffffffffffffffffffffffffffffffff82169050919050565b6000819050919050565b7f57616c6c657420616d6f756e74206973206e6f742073756666696369656e742e600082015250565b61020c8161019e565b811461021757600080fd5b50565b610223816101d0565b811461022e57600080fd5b5056fea2646970667358221220d9769ccdb7f06d0b4d9701e17365551d3eb9d290949555b3569f7fb1a595134964736f6c63430008040033",
  "immutableReferences": {},
  "source": "pragma solidity ^0.8.0;\n\n\ncontract JWallet {\n\n    function withdraw(address payable _to, uint _amount) public {\n        require(_amount > address(this).balance, \"Wallet amount is not sufficient.\");\n        _to.transfer(_amount);\n    }\n\n    receive() external payable {\n\n    }\n}",
  "sourcePath": "/Users/mertozgun/dev/m2ozgun/JWallet/contracts/JWallet.sol",
  "compiler": {
    "name": "solc",
    "version": "0.8.4+commit.c7e474f2.Emscripten.clang"
  },
  "schemaVersion": "3.4.0",
  "updatedAt": "2021-05-02T04:57:56.681Z",
  "networkType": "ethereum",
  "devdoc": {
    "kind": "dev",
    "methods": {},
    "version": 1
  },
  "userdoc": {
    "kind": "user",
    "methods": {},
    "version": 1
  }
}