{
  "contractName": "JWallet",
  "abi": [
    {
      "anonymous": false,
      "inputs": [
        {
          "indexed": true,
          "internalType": "address",
          "name": "_address",
          "type": "address"
        },
        {
          "indexed": false,
          "internalType": "uint256",
          "name": "_amount",
          "type": "uint256"
        }
      ],
      "name": "AllowanceDecreased",
      "type": "event"
    },
    {
      "anonymous": false,
      "inputs": [
        {
          "indexed": true,
          "internalType": "address",
          "name": "_of",
          "type": "address"
        },
        {
          "indexed": true,
          "internalType": "address",
          "name": "_by",
          "type": "address"
        },
        {
          "indexed": false,
          "internalType": "uint256",
          "name": "_prevAmount",
          "type": "uint256"
        },
        {
          "indexed": false,
          "internalType": "uint256",
          "name": "_newAmount",
          "type": "uint256"
        }
      ],
      "name": "AllowanceEvent",
      "type": "event"
    },
    {
      "anonymous": false,
      "inputs": [
        {
          "indexed": true,
          "internalType": "address",
          "name": "_address",
          "type": "address"
        },
        {
          "indexed": false,
          "internalType": "uint256",
          "name": "_amount",
          "type": "uint256"
        }
      ],
      "name": "AllowanceIncreased",
      "type": "event"
    },
    {
      "anonymous": false,
      "inputs": [
        {
          "indexed": true,
          "internalType": "address",
          "name": "previousOwner",
          "type": "address"
        },
        {
          "indexed": true,
          "internalType": "address",
          "name": "newOwner",
          "type": "address"
        }
      ],
      "name": "OwnershipTransferred",
      "type": "event"
    },
    {
      "inputs": [
        {
          "internalType": "address",
          "name": "",
          "type": "address"
        }
      ],
      "name": "allowance",
      "outputs": [
        {
          "internalType": "uint256",
          "name": "",
          "type": "uint256"
        }
      ],
      "stateMutability": "view",
      "type": "function",
      "constant": true
    },
    {
      "inputs": [],
      "name": "owner",
      "outputs": [
        {
          "internalType": "address",
          "name": "",
          "type": "address"
        }
      ],
      "stateMutability": "view",
      "type": "function",
      "constant": true
    },
    {
      "inputs": [
        {
          "internalType": "address",
          "name": "_address",
          "type": "address"
        },
        {
          "internalType": "uint256",
          "name": "_amount",
          "type": "uint256"
        }
      ],
      "name": "reduceAllowance",
      "outputs": [],
      "stateMutability": "nonpayable",
      "type": "function"
    },
    {
      "inputs": [],
      "name": "renounceOwnership",
      "outputs": [],
      "stateMutability": "nonpayable",
      "type": "function"
    },
    {
      "inputs": [
        {
          "internalType": "address",
          "name": "_address",
          "type": "address"
        },
        {
          "internalType": "uint256",
          "name": "_amount",
          "type": "uint256"
        }
      ],
      "name": "setAllowance",
      "outputs": [],
      "stateMutability": "nonpayable",
      "type": "function"
    },
    {
      "inputs": [
        {
          "internalType": "address",
          "name": "newOwner",
          "type": "address"
        }
      ],
      "name": "transferOwnership",
      "outputs": [],
      "stateMutability": "nonpayable",
      "type": "function"
    },
    {
      "stateMutability": "payable",
      "type": "receive",
      "payable": true
    },
    {
      "inputs": [
        {
          "internalType": "address payable",
          "name": "_to",
          "type": "address"
        },
        {
          "internalType": "uint256",
          "name": "_amount",
          "type": "uint256"
        }
      ],
      "name": "withdraw",
      "outputs": [],
      "stateMutability": "nonpayable",
      "type": "function"
    }
  ],
  "bytecode": "0x608060405234801561001057600080fd5b5060006100216100c460201b60201c565b9050806000806101000a81548173ffffffffffffffffffffffffffffffffffffffff021916908373ffffffffffffffffffffffffffffffffffffffff1602179055508073ffffffffffffffffffffffffffffffffffffffff16600073ffffffffffffffffffffffffffffffffffffffff167f8be0079c531659141344cd1fd0a4f28419497f9722a3daafe3b4186f6b6457e060405160405180910390a3506100cc565b600033905090565b610df7806100db6000396000f3fe6080604052600436106100745760003560e01c80638da5cb5b1161004e5780638da5cb5b1461014b5780638fdf08df14610176578063f2fde38b1461019f578063f3fef3a3146101c8576100c9565b8063310ec4a7146100ce5780633e5beab9146100f7578063715018a614610134576100c9565b366100c9573373ffffffffffffffffffffffffffffffffffffffff167fac1a4dcc7a2e06cc76c0fda51fa77de8c9d0a73d0982a5e55400c9942aa523ce346040516100bf9190610baf565b60405180910390a2005b600080fd5b3480156100da57600080fd5b506100f560048036038101906100f09190610a71565b6101f1565b005b34801561010357600080fd5b5061011e60048036038101906101199190610a0c565b61035b565b60405161012b9190610baf565b60405180910390f35b34801561014057600080fd5b50610149610373565b005b34801561015757600080fd5b506101606104ad565b60405161016d9190610b34565b60405180910390f35b34801561018257600080fd5b5061019d60048036038101906101989190610a71565b6104d6565b005b3480156101ab57600080fd5b506101c660048036038101906101c19190610a0c565b6106b3565b005b3480156101d457600080fd5b506101ef60048036038101906101ea9190610a35565b61085c565b005b6101f9610988565b73ffffffffffffffffffffffffffffffffffffffff166102176104ad565b73ffffffffffffffffffffffffffffffffffffffff161461026d576040517f08c379a000000000000000000000000000000000000000000000000000000000815260040161026490610b8f565b60405180910390fd5b3373ffffffffffffffffffffffffffffffffffffffff168273ffffffffffffffffffffffffffffffffffffffff167fe6898917956e15b0dcdc6b00db83ed34efcaa6476d8b514014ba8928fddeefe4600160008673ffffffffffffffffffffffffffffffffffffffff1673ffffffffffffffffffffffffffffffffffffffff168152602001908152602001600020548460405161030b929190610bca565b60405180910390a380600160008473ffffffffffffffffffffffffffffffffffffffff1673ffffffffffffffffffffffffffffffffffffffff168152602001908152602001600020819055505050565b60016020528060005260406000206000915090505481565b61037b610988565b73ffffffffffffffffffffffffffffffffffffffff166103996104ad565b73ffffffffffffffffffffffffffffffffffffffff16146103ef576040517f08c379a00000000000000000000000000000000000000000000000000000000081526004016103e690610b8f565b60405180910390fd5b600073ffffffffffffffffffffffffffffffffffffffff1660008054906101000a900473ffffffffffffffffffffffffffffffffffffffff1673ffffffffffffffffffffffffffffffffffffffff167f8be0079c531659141344cd1fd0a4f28419497f9722a3daafe3b4186f6b6457e060405160405180910390a360008060006101000a81548173ffffffffffffffffffffffffffffffffffffffff021916908373ffffffffffffffffffffffffffffffffffffffff160217905550565b60008060009054906101000a900473ffffffffffffffffffffffffffffffffffffffff16905090565b8080600160003373ffffffffffffffffffffffffffffffffffffffff1673ffffffffffffffffffffffffffffffffffffffff168152602001908152602001600020541015806105295750610528610990565b5b610568576040517f08c379a000000000000000000000000000000000000000000000000000000000815260040161055f90610b4f565b60405180910390fd5b3373ffffffffffffffffffffffffffffffffffffffff168373ffffffffffffffffffffffffffffffffffffffff167fe6898917956e15b0dcdc6b00db83ed34efcaa6476d8b514014ba8928fddeefe4600160008773ffffffffffffffffffffffffffffffffffffffff1673ffffffffffffffffffffffffffffffffffffffff1681526020019081526020016000205485600160008973ffffffffffffffffffffffffffffffffffffffff1673ffffffffffffffffffffffffffffffffffffffff168152602001908152602001600020546106429190610c04565b604051610650929190610bca565b60405180910390a381600160008573ffffffffffffffffffffffffffffffffffffffff1673ffffffffffffffffffffffffffffffffffffffff16815260200190815260200160002060008282546106a79190610c04565b92505081905550505050565b6106bb610988565b73ffffffffffffffffffffffffffffffffffffffff166106d96104ad565b73ffffffffffffffffffffffffffffffffffffffff161461072f576040517f08c379a000000000000000000000000000000000000000000000000000000000815260040161072690610b8f565b60405180910390fd5b600073ffffffffffffffffffffffffffffffffffffffff168173ffffffffffffffffffffffffffffffffffffffff16141561079f576040517f08c379a000000000000000000000000000000000000000000000000000000000815260040161079690610b6f565b60405180910390fd5b8073ffffffffffffffffffffffffffffffffffffffff1660008054906101000a900473ffffffffffffffffffffffffffffffffffffffff1673ffffffffffffffffffffffffffffffffffffffff167f8be0079c531659141344cd1fd0a4f28419497f9722a3daafe3b4186f6b6457e060405160405180910390a3806000806101000a81548173ffffffffffffffffffffffffffffffffffffffff021916908373ffffffffffffffffffffffffffffffffffffffff16021790555050565b8080600160003373ffffffffffffffffffffffffffffffffffffffff1673ffffffffffffffffffffffffffffffffffffffff168152602001908152602001600020541015806108af57506108ae610990565b5b6108ee576040517f08c379a00000000000000000000000000000000000000000000000000000000081526004016108e590610b4f565b60405180910390fd5b8273ffffffffffffffffffffffffffffffffffffffff167f603b725f43efff7ac17396088b413b40c19021352ac72e9cc2e4f8f4de7084b0836040516109349190610baf565b60405180910390a28273ffffffffffffffffffffffffffffffffffffffff166108fc839081150290604051600060405180830381858888f19350505050158015610982573d6000803e3d6000fd5b50505050565b600033905090565b60003373ffffffffffffffffffffffffffffffffffffffff166109b16104ad565b73ffffffffffffffffffffffffffffffffffffffff1614905090565b6000813590506109dc81610d7c565b92915050565b6000813590506109f181610d93565b92915050565b600081359050610a0681610daa565b92915050565b600060208284031215610a1e57600080fd5b6000610a2c848285016109cd565b91505092915050565b60008060408385031215610a4857600080fd5b6000610a56858286016109e2565b9250506020610a67858286016109f7565b9150509250929050565b60008060408385031215610a8457600080fd5b6000610a92858286016109cd565b9250506020610aa3858286016109f7565b9150509250929050565b610ab681610c38565b82525050565b6000610ac9602783610bf3565b9150610ad482610cb5565b604082019050919050565b6000610aec602683610bf3565b9150610af782610d04565b604082019050919050565b6000610b0f602083610bf3565b9150610b1a82610d53565b602082019050919050565b610b2e81610c7c565b82525050565b6000602082019050610b496000830184610aad565b92915050565b60006020820190508181036000830152610b6881610abc565b9050919050565b60006020820190508181036000830152610b8881610adf565b9050919050565b60006020820190508181036000830152610ba881610b02565b9050919050565b6000602082019050610bc46000830184610b25565b92915050565b6000604082019050610bdf6000830185610b25565b610bec6020830184610b25565b9392505050565b600082825260208201905092915050565b6000610c0f82610c7c565b9150610c1a83610c7c565b925082821015610c2d57610c2c610c86565b5b828203905092915050565b6000610c4382610c5c565b9050919050565b6000610c5582610c5c565b9050919050565b600073ffffffffffffffffffffffffffffffffffffffff82169050919050565b6000819050919050565b7f4e487b7100000000000000000000000000000000000000000000000000000000600052601160045260246000fd5b7f4164647265737320646f6573206e6f7420686176652073756666696369656e7460008201527f2066756e64732e00000000000000000000000000000000000000000000000000602082015250565b7f4f776e61626c653a206e6577206f776e657220697320746865207a65726f206160008201527f6464726573730000000000000000000000000000000000000000000000000000602082015250565b7f4f776e61626c653a2063616c6c6572206973206e6f7420746865206f776e6572600082015250565b610d8581610c38565b8114610d9057600080fd5b50565b610d9c81610c4a565b8114610da757600080fd5b50565b610db381610c7c565b8114610dbe57600080fd5b5056fea264697066735822122051ec91b2778cbed79921d2ca5ddc9cfd8bc2db7e46a9210ff6de7f6699ff03b564736f6c63430008040033",
  "immutableReferences": {},
  "source": "pragma solidity 0.8.4;\n\nimport \"./Allowance.sol\";\n\ncontract JWallet is Allowance {\n    event AllowanceIncreased(address indexed _address, uint _amount);\n    event AllowanceDecreased(address indexed _address, uint _amount);\n\n    function withdraw(address payable _to, uint256 _amount) public isAllowed(_amount) {\n        \n        emit AllowanceDecreased(_to, _amount);\n        _to.transfer(_amount);\n    }\n\n    receive() external payable {\n        emit AllowanceIncreased(msg.sender, msg.value);\n    }\n}\n",
  "sourcePath": "/Users/mertozgun/dev/m2ozgun/JWallet/contracts/JWallet.sol",
  "compiler": {
    "name": "solc",
    "version": "0.8.4+commit.c7e474f2.Emscripten.clang"
  },
  "schemaVersion": "3.4.0",
  "updatedAt": "2021-05-02T09:38:37.353Z",
  "networkType": "ethereum",
  "devdoc": {
    "kind": "dev",
    "methods": {
      "owner()": {
        "details": "Returns the address of the current owner."
      },
      "renounceOwnership()": {
        "details": "Leaves the contract without owner. It will not be possible to call `onlyOwner` functions anymore. Can only be called by the current owner. NOTE: Renouncing ownership will leave the contract without an owner, thereby removing any functionality that is only available to the owner."
      },
      "transferOwnership(address)": {
        "details": "Transfers ownership of the contract to a new account (`newOwner`). Can only be called by the current owner."
      }
    },
    "version": 1
  },
  "userdoc": {
    "kind": "user",
    "methods": {},
    "version": 1
  }
}